:020000022000DC
:107000007081002095EF0200ED20050069EF02007D
:1070100069EF020069EF020069EF02000000000062
:10702000000000000000000000000000B9F00200B5
:1070300069EF02000000000025F0020069EF020085
:10704000D9F202007D390400D9F20200D9F202001F
:10705000D9F20200D9F20200D9F20200D9F20200FC
:10706000D9F20200D9F20200D9F20200D9F20200EC
:10707000D9F20200D9F20200D9F20200D9F20200DC
:10708000D9F20200D9F20200D9F20200D9F20200CC
:10709000D9F20200D9F20200D9F20200D9F20200BC
:1070A000D9F20200D9F20200D9F20200D9F20200AC
:1070B000D9F20200D9F20200D9F20200D9F202009C
:1070C000D9F20200D9F20200D9F20200D9F202008C
:1070D000D9F20200D9F20200D9F20200D9F202007C
:1070E000D9F20200D9F20200D9F20200D9F202006C
:1070F000D9F20200D9F20200D9F20200D9F202005C
:1071000053B94AB9002908BF00281CBF4FF0FF310E
:107110004FF0FF3000F00CB8ADF1080C6DE904CE73
:1071200000F008F8DDF804E0DDE9022304B0704760
:10713000704700BF2DE9F04786468C460846089EFA
:10714000154674461946002B40F0C2808542B2FABB
:1071500082F245D94AB1C2F1200300FA02FC2EFAAC
:1071600003F3954043EA0C0C94404FEA154EA8B245
:10717000BCFBFEF8230C0EFB18CC08FB00F943EA1D
:107180000C43994528D9EB1808F1FF3704D29945EB
:1071900002D9A8F102072B44A3EB0903A4B2B3FB65
:1071A000FEFC0EFB1C330CFB00F044EA0344A0423F
:1071B00014D92C190CF1FF3304D2A04202D9ACF13E
:1071C00002032C44241A43EA07401EB1D440002392
:1071D00034607360BDE8F0874746DDE76346F1E75A
:1071E00092BB431B01214FEA154EAFB2B3FBFEFC2D
:1071F000200C0EFB1C330CFB07F840EA03439845B8
:1072000062D9EB180CF1FF3004D2984502D9ACF1E9
:1072100002002B44A3EB0803A4B2B3FBFEFC0EFB5D
:107220001C330CFB07F744EA0344A7424ED92C1940
:107230000CF1FF3304D2A74202D9ACF102032C4473
:10724000E41B43EA0040C0E7C2F1200320FA03F147
:10725000954090402EFA03F303434FEA154EAFB228
:10726000B1FBFEFC0EFB1C10190C0CFB07F841EAED
:107270000041884504FA02F422D969180CF1FF3064
:1072800004D2884502D9ACF102002944A1EB0801DF
:107290009BB2B1FBFEFC0EFB1C110CFB07F743EA93
:1072A00001439F420ED9EB180CF1FF3104D29F42EB
:1072B00002D9ACF102012B44DB1B41EA004192E709
:1072C0006046E3E76146F7E76046A3E76346B7E752
:1072D000834206D916B9002108467BE7C6E900E0DB
:1072E000F9E7B3FA83F78FB9834201D3724508D81F
:1072F000BEEB020460EB030301209C461EB9002193
:1073000068E73846FAE7C6E9004CF8E7C7F1200C11
:10731000BB4022FA0CF41C432EFA0CF120FA0CF3B9
:10732000B84001434FEA14490EFA07F5B3FBF9F8E8
:107330001FFA84FE09FB18300B0C08FB0EFA43EA17
:1073400000439A4502FA07F240D9E31808F1FF30EA
:1073500004D29A4502D9A8F102002344A3EB0A0300
:1073600089B2B3FBF9F809FB183308FB0EFE41EABA
:1073700003418E452CD9611808F1FF3304D28E45A4
:1073800002D9A8F10203214443EA0040A0FB02987D
:10739000A1EB0E014145CE46434602D306D14D45F1
:1073A00004D2B9EB020E68EB04030138002EA6D01C
:1073B000B5EB0E0261EB030101FA0CFC22FA07F3B4
:1073C0004CEA0303F940C6E9003198E74046C5E7B7
:1073D0004346D9E710F8012B11F8013B012A28BFD9
:1073E0009A42F7D0D01A7047034611F8012B03F8E0
:1073F000012B002AF9D17047034613F8012B002A0C
:10740000FBD1181A013870472DE9F041494D88B079
:10741000D5F85C31996811F0010100AF22D107F174
:10742000080240F6034009F05BFB044600287BD1CC
:10743000B868C3681B789BB9BFF35B8FD5F8D430AD
:10744000BFF35B8F05F1D40203F00903BFF35B8F39
:1074500052E8001F42E80034002CF9D1BFF35B8FE3
:107460001FF0CEF907F10802002141F2030009F0F4
:1074700037FB0446002857D1BB682F4EDA68D2F894
:107480000100D2F8051003C618461FF0B9F92146CD
:1074900007F1080241F2010009F022FB044600282E
:1074A00042D1B868C3685A7885F870205A88A5F820
:1074B00072201A7985F87120B3F80720A5F8742096
:1074C000B3F80530A5F876301FF09AF9214607F198
:1074D000080241F2020009F003FB044620BBD7F882
:1074E0000880D8F80C20531C41321868596834467B
:1074F00003C4083393422646F7D110482AF08AFE87
:1075000040461FF07DF995F87C305A061CD40C4B90
:10751000FB6102230B48BB6107F118024FF4825153
:107520006FF012042AF061FF20462037BD46BDE807
:10753000F08100BF000000207800002080000020C3
:10754000D4B30500C469050007F10802002142F226
:10755000030009F0C5FA04460028E5D1BB68AC4E2B
:10756000DA68D2F80100D2F8051003C618461FF0F9
:1075700047F9214607F1080242F2020009F0B0FA89
:1075800004460028D0D1BC68E368B3F8012091B26A
:1075900049B1D97839B1A5F80421DA78114606F154
:1075A00028002EF0CAF820461FF02AF995F87C60D2
:1075B00016F0200618D1022140F66D4009F04AF974
:1075C0000446002800F0CD8002210C302CF07CFF16
:1075D0000123037046702146324640F66D4009F0A3
:1075E0007FFA044600289FD195F89C301B0713D5DD
:1075F00007F10802002142F21C0009F071FA04466A
:10760000002891D1B868C368D3F80120D3F80530B9
:10761000C5E938231FF0F4F895F8D8309E0622D536
:10762000391DB81C09F0DEFA044600287FF47CAF4F
:10763000042142F2240009F00DF90646002800F06A
:10764000908004210C302CF03FFF7B880380BB88A6
:1076500043802246314642F2240009F041FA0446B2
:1076600000287FF461AF95F8D8305C0611D507F19A
:107670000802002142F22A0009F032FA04460028EA
:107680007FF452AFB868C3685B7885F820311FF08B
:10769000B7F8082142F2010009F0DCF8044600289E
:1076A0005FD008210C302CF00FFF95F8D81011F0A6
:1076B000400F024640F2022308BF032388074CBF55
:1076C00043F02C0043F00C008B0695F8D93048BFEE
:1076D00040F0400013F0090F95F8A23018BF40F4B5
:1076E000006003F00603CE0748BF40F01000062BF1
:1076F00008BF40F4C07000212AF086FE2146002217
:1077000042F2010009F0ECF9044600287FF40CAFC6
:1077100095F87C30B5F80411980625D4D1B907F155
:10772000080241F2050009F0DBF9044600287FF465
:10773000FBAEB5F80431BC684BB9E368B3F801207F
:10774000A5F804219A88334811462DF0F6FF20460B
:107750001FF056F8082140F6014009F07BF8044676
:1077600090B96FF06804DFE60029F3D12A4BFB6182
:1077700002232A48BB6107F118024FF482512AF014
:1077800034FE6FF00404CFE608210C302CF09CFE90
:1077900095F8D830D907024653BF4FF000511AA1CF
:1077A000D1E900011E482AF02FFE2146002240F6B2
:1077B000014009F095F9044600287FF4B5AE014672
:1077C0003A1D4FF6014009F08BF968B3154BFB6188
:1077D00002231248BB6107F118024FF484512AF0CA
:1077E00004FE2BF016F8044600287FF49DAE0BF043
:1077F00059FF044600287FF497AE09F0C5FE044601
:1078000092E600BFAFF30080908800020080002065
:10781000D800002008010020F8B30500C469050065
:10782000108800021BB405007B68DC68B4F80130E6
:10783000032B96BF434A444952F823106D468AB041
:107840006A464248D3614FF400731384404BC2E947
:10785000050142F8103F3F484FF413512AF0C5FD8F
:10786000B4F80120B4F80330022AAD4648D1032B06
:1078700046D8394A52F823106D468AB06A463748CE
:10788000D3614FF400731384314BC2E9050142F810
:10789000103F4FF413512F482AF0A7FD6379A679C2
:1078A000D4F80900032BAD4698BF2D4AB4F8075011
:1078B00094BF52F8231024496C468CB06A46DFF816
:1078C000B4C0C2E907364FF400739385254BC2E973
:1078D00005C1C2E909504FF4735142F8103F1D48E9
:1078E0002AF083FDA54678681EF08AFF3A1D002124
:1078F0004FF6024009F0F4F8044618B11A4B66E757
:107900001149B9E77868194DC368B3F80130A5F893
:10791000C1301EF075FF95F8C1305B077FF561AF90
:107920003A1D21464FF6034009F0DAF808B1104B32
:107930004DE77868C3685B7885F8C0301EF060FF5B
:107940004FE700BFB872050057AE05003FB4050011
:1079500004000001C4690500A872050058B40500C0
:1079600098720500070000019DB40500000000208A
:10797000C6B4050070B405002DE9F843D0E90C3514
:10798000D0F82C805C193034A0450F46164619D823
:107990001D4DA3FB05011AA3D3E90023FFF7B0FB9C
:1079A0000346A4EB0800A0FB050123F07F4414A3C9
:1079B000D3E90023FFF7A4FB20F07F403C60306058
:1079C000BDE8F883DFF840900DA3D3E90023A8FBBE
:1079D0000901FFF795FB044605F1300008A3D3E940
:1079E0000023A0FB0901FFF78BFB24F07F4420F06C
:1079F0007F403C603060BDE8F88300BFAFF300809B
:107A00008D49FD1A0700000000CA9A3B00000000E3
:107A10009FED097B0E4B0F4A0F4983ED007B9FEDD5
:107A2000087B82ED007B9FED087B0C4B002281EDF3
:107A3000007B1A6013F0ACBBFFFFFFFFFF1F0000CD
:107A400000000000000000001F0000000000000017
:107A50008001002000200020780100208C350020CB
:107A6000002800F046812DE9F04FC94C94F86A20B7
:107A700012F001058DB040F0788194F82500FF23C5
:107A800000F0030084F826301BF062FB94F86A00D3
:107A9000420727D494F8292094F8353004EB820269
:107AA00004EB8303D66AD3F8388086B1B8483146F0
:107AB00015F0CAF933785B0605D5062110F0ACFB4A
:107AC000002800F05481B248414615F0BDF93378E2
:107AD00013F00E0F40F09E80236A93B10C200DB07E
:107AE000BDE8F08F2A4604F16B01C0F3C0001BF023
:107AF0009FFCFF2884F82600CCD028461BF042FBD0
:107B0000C8E712F049FC8146002800F0548112F0C9
:107B10004FFC8246002800F04B8115F083FC05469F
:107B2000002800F04A81D0F888004FF6FF732B85BB
:107B300005F11C0B002800F0208105F17C0205F105
:107B4000780110F075FBB5F8763023F4EF6323F07D
:107B5000070343F4887343F00103A5F8763095F8E2
:107B6000393003F03F0363F07F0385F8393095F82F
:107B70008E3023F0070385F88E3095F83C3023F0E3
:107B80000703002785F83C304FF4C023C5F888313F
:107B90002846C5E91277C5F88870A5F88C706F86FD
:107BA000C5F82E7085F83B702F65A5F88E71A5F885
:107BB000847117F0A9FD85F85071C5F8549115F03E
:107BC000BDFE95F8943160F3020385F8943115F009
:107BD000BBFE95F8943160F3C50385F8943195F8B0
:107BE000803167F3410385F880310121284616F082
:107BF000C7FA05F1D40017F041FBC4E9189AC4F89C
:107C000020B0C5E905772F70ED611CF057FC002806
:107C100040F0AF8094F824300121C3F342030DF10A
:107C20002B008DF82B3010F0A1FC0246002862D00A
:107C300098F80110304614F0C9FE31235549A3606D
:107C4000554BB4F86870A0FB01010025C01841F144
:107C500007014DA3D3E90023C4E9055525706560EC
:107C6000E560FFF74DFA206111F092FE00F109087E
:107C70003FB9357805F00F05A5F10105B5FA85F591
:107C80006D0994F82400236965F3000010F00105E4
:107C900084F8240036D0414A099200201060022561
:107CA0003F4A404F04930BAE019305920321CDE967
:107CB0000200069443460090089607972A460B95C3
:107CC00011F068FD314612F02DFCA0B9364905913E
:107CD0004AF2D8330093CDE90300CDE901000797BC
:107CE000089606944346012203210B9511F036FDB8
:107CF0002EE014F0BBBD236A002B3FF4EFAE14F06E
:107D000073FDEBE6254A2948049303F247130694D2
:107D1000029591211360A7FB000301FB0731214B62
:107D200007931F4B05934FF6FF73099202270393A6
:107D30000BAE15A3D3E900230B970896FFF7E0F9E4
:107D40004346CDE900503A462846032111F022FD72
:107D5000314612F0E7FB0028CDD194F86A300120BB
:107D6000034384F86A301BF0D5F90020B7E61220EF
:107D7000B5E614F039FD0320B1E605F18000C5F841
:107D80008800DAE6AFF300808D49FD1A0700000095
:107D9000C435002000CA9A3B8C49FD1AB835002032
:107DA00049CA0300E99A030065C50300002AE78475
:107DB000484612F0F7FA072091E6504612F0FEFA14
:107DC000484612F0EFFAF6E770B590F824308AB022
:107DD000C3F342030D46044601210DF1230016466C
:107DE0008DF8233010F0C2FB71780246284614F05B
:107DF000EDFD1F491F4AA0FB0131981841F1070111
:107E000019A3D3E90023FFF77BF9236998420546BC
:107E100021D21B1A00220192174A0293174BA21A71
:107E2000A3FB02320221920900230A4409AE099100
:107E300013490591CDE903330321D2B2069600938D
:107E4000184611F007FD314612F06CFB38B9256178
:107E500000200AB070BDFBD9C21A0023DBE70C205A
:107E60000AB070BDAFF300808D49FD1A0700000015
:107E700000CA9A3B8C49FD1AC435002009CB3D8DC0
:107E8000E99A0300000000002DE9F04F05468BB091
:107E90008B46012002219A4614461EF0F9F9002271
:107EA00002218146012010F013FA39494FF4D072B3
:107EB000284610F09DF9C61CF6B2364B00953246A6
:107EC0000121002011F0DEFC10F0FD0F0CD0324A31
:107ED0003249334840F62F0328F011F9404080F32F
:107EE00011884FF0030002DF2E4BA4FB034820460D
:107EF00025A3D3E900234146FFF702F9089506952B
:107F00002B690493284B20F07F47A7FB0331E01A2D
:107F1000264B07934FF00702254B059302FB0711F1
:107F20004FF6FE7368EB010103934FF47A7200235E
:107F3000FFF7E6F8CDF800B0CDE9017053463246C0
:107F40000121002011F00AFC10F0FD0F0CD0124AA4
:107F50001249134840F6440328F0D1F8404080F31A
:107F600011884FF0030002DFB9F1000F02D10BB00E
:107F7000BDE8F08F0122022110460BB0BDE8F04FA2
:107F800010F0A6B9AFF300808D49FD1A070000007C
:107F900008200020CDD303000C7D0500D07D050016
:107FA000D876050000CA9A3B8D49FD1A75D30300A7
:107FB0007D260400000000002DE9F043C469228DF5
:107FC0004FF6FF739A428DB000F088800546204638
:107FD00017F01CFE95F82830012B00F00F81022BC2
:107FE00000F00281002B00F0E18094F85071002F26
:107FF00040F0FD80E68DB4F83080002E71D1AA8C5F
:1080000008F101060023CDE90A33B6B2002A70D088
:1080100094F93930002BC0F248810023A4F88A314A
:1080200095F82630D90740F1EF800023A4F88E316F
:108030000DF127023146204617F0A2FB743000F004
:108040004681B4F888312BB1B34240F20D819B1BBD
:10805000A4F88831B4F884312BB1B34240F2FB80EC
:108060009B1BA4F88431258E17B9A84500F0EA803F
:108070000135ADB294F8D13013F001065AD1DDE9E3
:108080000A130A46002B40F0ED80002900F0DC8046
:108090001E461846228DE4690694CDE90357033243
:1080A000A74D0290CDE90016D2B20121002005951E
:1080B00011F0D0FB10F0FD0F10D012F05DFA8442E9
:1080C0000CD0A04AA049A14840F2155328F017F857
:1080D000404080F311884FF0030002DF0DB0BDE88F
:1080E000F083AA8C46440023CDE90A33B6B2002AB5
:1080F0008ED195F82630DA0797D4B4F88A31002B60
:1081000000F08280B34240F2FA809B1BA4F88A31CF
:10811000B4F88E31002B8BD09E4280F0DE809B1B0A
:108120009BB20022062BA4F88E31228600F2AC808E
:1081300001277DE794F939206FF30003002A84F8C2
:10814000D13077DB94F87600C0F3C00100F007006F
:108150001CF01AF8B4F86E20B4F86C30134403F233
:10816000D51303447A4A7B480721E3FB00211046DC
:1081700071A3D3E90023FEF7C3FFDDE90A1320F062
:108180007F4220692261904235BF161A801A002072
:1081900000260A46002B7FF47DAF56EA010C7FF4DF
:1081A00079AF002850D019461E4673E794F88E30F8
:1081B00003F01803182B7FF418AFA18DB4F88621B3
:1081C0008B1D9A42C4BF931F5B1AB4F88211CCBFB7
:1081D0009BB21346994200F08C80A4F88231A4F837
:1081E0008431A4F8882100E73D2784F8507139468E
:1081F00020460DB0BDE8F04315F082BC0023A4F882
:108200008831A4F88431F0E6B4F88E31002B83D1A4
:10821000628DB4F88C3140F2E24101FB02F242F28D
:10822000107101FB0323013BB3FBF2F39BB2A4F8F3
:108230008E316FE794F87700012100F007001BF002
:10824000A5FF87E73D4615E7002D4BD000261146D8
:10825000304633461EE70023A4F88431204617F049
:108260002FFB00E7304615E712F0EEF80146002834
:108270003BD00023A4F88831238DC3801B230371D6
:10828000006812F0ABF8E5E694F939309342BFF696
:10829000CFAEB8F1000F7FF44BAFD4F878315A0865
:1082A000DB0743D4C4F87821C2E628460AAA0BA902
:1082B00004F1D409FFF760FB484617F021F818B322
:1082C000484617F01DF818B300232386A5E69DF84D
:1082D0002710204615F014FC00E70821204615F071
:1082E0000FFCFBE6002FB1D1F8E60123A4F888319A
:1082F000B0E6B4F8881100297FF477AE6FE73E212D
:10830000204615F0FDFBE9E6FF2015F0B9FBD7E7A5
:108310000246D4E91E010FF0A3FF0028D4D194F83F
:108320003C30580744BFA38D238676E642F00042D6
:10833000C4F87821FCE600BF8D49FD1A0700000053
:1083400035D303000C7D0500347E0500D87605008A
:108350008C49FD1A00CA9A3B2DE9F04F87B0CDE950
:108360000423BDF8442003780292BDF84820BDF8EC
:108370004080BDF84C50468EB0F82E90B0F814B145
:10838000019104460392002B00F08E80013EB6B2AC
:10839000A368D4F80C71721B92B2002B009209DA18
:1083A000E168626823F0004391422CBF7F18BF1838
:1083B000A360FF1A009A638D13FB02F39BB2B3FB19
:1083C000F8F218FB02F080B283421FFA82FA5AD206
:1083D000C01A40F2E2425E4902FB00F0A0FB01013C
:1083E00059A3D3E90023FEF78BFE20F07F4007441A
:1083F000D94494F839304D44AD1B554440F2E2461F
:10840000DB09E58506FB08F552D1524A524953482B
:1084100040F6BA0327F073FE404080F311884FF016
:10842000030002DF0026A946029BA385039BA4F854
:108430008C3129462046A4F82A8017F0DDF9484BF4
:10844000A18D2B44881DB3FBF5F39AB29042A4F89A
:10845000862102D2521A063A92B2019BA4F88221D6
:1084600013B10023A4F88E313B464A4631462046DC
:10847000FFF70AFD94F8803143F0010384F880315E
:1084800007B0BDE8F08F08FB1231314840F2E243FB
:1084900089B203FB01F1A1FB00012BA3D3E9002367
:1084A000FEF72EFE3F1AA3E74E445E44B6B26FE7D6
:1084B000226C0099A36CDFF898B002FB1133A3641F
:1084C0001CF04CF8814694F87401C0F342001CF093
:1084D00047F8049B814406FB03F305FB09F9236578
:1084E00009F574291F4B09F23F29A3FB09394FEA0B
:1084F000994303FB0AF02364A5EB0309A36C6A0804
:108500000344963A934228BF1346C4E9112300233B
:10851000C4F87C31A0FB0B010BA3D3E90023FEF7C9
:10852000EFFD114B059A3F1AA3FB0230800A06FBB0
:1085300000F005A3D3E90023A0FB0B01FEF7E0FD4B
:1085400020F07F4670E700BF8D49FD1A070000004C
:1085500000CA9A3B0C7D050058770500D8760500C7
:108560007FC3C90183DE1B435917B7D10000000048
:108570002DE9F04F0B6891F81180D3F80090037F3C
:10858000176895B00446C3F38013D0F81E008DF829
:108590003F30B8F1FF0F638C12900E461546ADF8D0
:1085A0004C300DF1480A49D19AE803001090ADF81B
:1085B00044102346E28D53F82EBB9B78AB722A8180
:1085C000D4F82A306B60D4F83A30AB6105F118006A
:1085D00094F83E30037105210FF0C8FF6B7F00F067
:1085E0003F0060F305036B7794F83F30C3F3040258
:1085F000AA77A28EEA81012803F01F0392B205D95F
:108600001B3303F01F030B2B00D81ABB0022C9F841
:10861000142095F8203062F3000385F82030E568D7
:10862000012658462146267111F0CEFE28682E718B
:10863000294611F0D3FE15B0BDE8F08F10AA0DF158
:108640003F0140461AF012FB9DF83F3002338DF88F
:108650003F30AEE7336800215960E38EEA892B8210
:1086600040F2E24303FB02F20B92628E0D92384617
:1086700017F0D6F894F83F2097F87411520962F376
:10868000430187F874111BF069FF0C9097F874018F
:10869000C0F342001BF064FF0C9A0B99104401FBDD
:1086A00000F0B94A00F5742000F23F20A2FB002040
:1086B0004A08800C963A6862AA6294F8312040F227
:1086C000E24302FB03F3AB63238FA7F88C313846F8
:1086D00017F092F80B99AD4BAD4AC7F890210B44B7
:1086E000B3FBF1F39AB2A7F88621298A881D82424A
:1086F00004DDC1F57F41FA310A4492B2A7F8822124
:108700006B68C7F87831234613F81C2FC2F3401268
:108710000C92DA0700F113814FF48073A38399F868
:1087200026001AF099FF04F12B03002800F0EB80DB
:10873000626AC4F82B20228D9A80B8F1FF0F00F0F6
:10874000E680BAF804301298A4F82930C4F825005D
:108750009DF83F30A3771098BDF84430C4F81F004F
:10876000A4F82330EB8963862B8AA386B7F88C3173
:10877000E38697F87431C3F3420384F838303846FF
:1087800014F05CFEA881E08021465846746811F020
:108790001BFEAB89E3801C2323710C9BD4F8008063
:1087A000002B40F0BA800C9B23772146404611F005
:1087B00015FE95F85B00B5F85080B5F852400121E0
:1087C00000F007001BF0E2FC444404F2D514DFF88B
:1087D000CC81044482466F480721E4FB0801312321
:1087E0000024BB607C6066A3D3E90023FC60FEF735
:1087F00087FC20F07F4038610B9B6D6A0D995D1BF3
:10880000F36840F2E24202FB013303F2B241A1EB12
:108810000A0A2246022101200FF05AFD484614F0B0
:10882000CFFA0246AAFB0801924655A3D3E90023DA
:10883000FEF766FCCDF80490B3685749009120F02C
:108840007F480AF102023A3BD2B22046434401215A
:1088500011F05AF801287FD099F82430DB0766D44C
:10886000384614F0EBFD4D4BA5FB03A9044644A389
:10887000D3E9002350464946FEF742FC484BB66810
:10888000484A079220F07F45A5FB0331BAEB03006D
:10889000454B059340F2D113069708933B694FF07F
:1088A000000BCDE903B34FF0070303FB051169EBA0
:1088B00001014FF47A720023FEF722FC03343A3EA2
:1088C000E4B2CDE90150CDF80080334622460121C3
:1088D000584610F043FF10F0FD0F0CD0334A3449D6
:1088E00034484FF4E97327F00AFC404080F31188C4
:1088F0004FF0030002DF0122022110460FF0E8FCD6
:1089000015B0BDE8F08FC4F82B00988015E7002261
:10891000C4F82520A4F829201AE76B7F43F0400310
:108920006B77281D19F0ACFF0123E8833CE7002397
:10893000012200931846114610F0A4FF90E71B4A4D
:108940001D491C48F82327F0DAFB404080F31188CA
:108950004FF0030002DFDFE611F00EFE81453FF429
:108960007BAF124A1549134840F2792327F0C7FB21
:10897000404080F311884FF0030002DF6CE700BF36
:108980008D49FD1A0700000083DE1B437FC3C90128
:10899000404B4C008C49FD1A4126040000CA9A3B0A
:1089A0008D49FD1A112604007D260400D0820500A1
:1089B000D07D0500D8760500807A05002C8305005F
:1089C00010B5334C3349002304F1FF3C14F8332035
:1089D000072A02EB820E05D811F83E206FF34512EC
:1089E00001F83E201CF833206FF300020CF833200E
:1089F0000133082BEAD1284A284C002313700A7847
:108A000063F300020A7091F8282063F3000281F8F2
:108A1000282091F8502063F3000281F8502091F84B
:108A2000782063F3000281F8782091F8A02063F3A6
:108A3000000281F8A02091F8C82063F3000281F8B9
:108A4000C82091F8F02063F3000281F8F02091F83B
:108A5000182163F3000281F81821114A9FED0A7B67
:108A60001370104B83ED007B0F4B236028B1BDE8E2
:108A700010400E490E482CF027BFBDE810400C48AE
:108A80002CF030BFAFF30080FFFFFFFFFFFFFFFFC1
:108A90006D3C00202C3B0020025000203C3A00207E
:108AA00001500020D8210020A0BB0D00713304002C
:108AB000A8210020000000002DE9F04F8FB00DF13B
:108AC00037010446DFF8E0A0DFF8E0800DF1360062
:108AD00011F002FD9DF836309DF837B00B9310F081
:108AE00057FFDAF80060A6FB085629A3D3E9002354
:108AF0000027814631462846FEF702FBCDE907777D
:108B0000069420F07F44DAF80400234B0593A0FB81
:108B100008011FA3D3E90023FEF7F2FA1F4B20F050
:108B20007F40A4FB0331072202FB0411CDE903704F
:108B3000E81A66EB01014FF47A720023FEF7E0FABF
:108B40000097CDE901404B460B985A46032110F09F
:108B500005FE10F0FD0404D06FF08B000FB0BDE8EF
:108B6000F08F0F480F4A002325F00EFB20B9DAF8EA
:108B70000C000FB0BDE8F08F9DF837209DF836004F
:108B800000942346032110F07DFE6FF07300E5E7AB
:108B90008D49FD1A07000000053904008D49FD1AB2
:108BA000E03C0020447B0B00F83C002000CA9A3BCC
:108BB00038B50F4D044610F0EBFEA96810F0EAFE40
:108BC000696803460B48B3FBF4F4A1FB00011C44A5
:108BD00005A3D3E90023FEF793FA20F07F408442F7
:108BE00094BF0020012038BD8D49FD1A0700000008
:108BF000F83C002000CA9A3BF0B5C468636883B0B3
:108C00000546002B63D11CF0CFFE08201CF0F2FEBD
:108C1000002108461CF0E0FE0022252108201CF05F
:108C20001FFF454B019301A81CF002FF434940F28E
:108C30005B601CF0A7FF237AC3F3420262F30613C2
:108C4000204623721BF0AAFE1AF0DAFD58BB637AA5
:108C50009B071FD127682E6838461BF033FA06445D
:108C60006A6806F1090101201DF0D4F81DF092F99F
:108C7000204614F0B1F8811C3246C9B238461BF0C8
:108C80002FFA054670BB20461BF0C4F988B90020B6
:108C900003B0F0BD01201AF031FA4178821C00784F
:108CA0001DF058F8D6E7607A10F0030018BF0120D5
:108CB000F1E7234A2349244840F22C4327F01FFAC6
:108CC000404080F311884FF0030002DFDFE793F8A4
:108CD00020309A0797D01D4821461CF023FE1CF037
:108CE0000BFFD4E7164A1A49174840F2144327F0FD
:108CF00006FA184B0721A5FB030301FB05310CA362
:108D0000D3E90023FEF7FCF913490246134827F084
:108D1000F6F9404080F311884FF0030002DF10485D
:108D200021461CF0FFFD1CF0E7FE6FF08B00AFE763
:108D300000CA9A3B00000000D6BE898E55555500EA
:108D40002487050044780500D876050069420400B0
:108D5000587705008D49FD1AD4870500A8870500BE
:108D60006D450400000000002DE9F041C468A289AF
:108D70004FF6FF739A4282B000F0C78005461CF0A0
:108D800035F92B89628AE08A1A4492B21044637FD3
:108D9000A28280B2411CE1825E064FF00001618236
:108DA00004F1180100F18C8003F03F000B46A17F15
:108DB000009004F11F0019F01BFD0646D4E90B23B7
:108DC0001344D4E90D0200210244E1626163A16A07
:108DD000A26394F872208B4228BF0B4612F0040263
:108DE000236377D01CF0E0FD08201CF003FE201D5B
:108DF0001CF01EFE2389A17A40F25B6043EA014128
:108E00001CF0C0FE30461BF07DF9214658481CF08E
:108E100089FD96201CF0F2FF94F85A2094F85B002C
:108E2000C2F3C003002102F0070200F007001CF0AB
:108E30000FFF20461CF03CF927682E6838461BF0CF
:108E400041F906446A6806F1090100201CF0E2FFBE
:108E500080461DF073F800201DF08AF8236B94F80B
:108E60005B0003F13002A36B00F00700012103EB6C
:108E700042051CF033FE4544054494F85B0000F0C5
:108E80000700022824D004280CBF4FF4BC73282309
:108E900001211D441CF024FE28441DF041F8A18945
:108EA00003313246C9B238461BF01AF9054698BB61
:108EB00020461BF0AFF8D0B9002002B0BDE8F08129
:108EC0000A4603F03F03E18B19F0DEFC064675E726
:108ED0001823DDE7D4E917010FF0C2F9002881D18A
:108EE00094F8723043F0040384F872307AE7214A30
:108EF0002149224840F2551327F001F9404080F300
:108F000011884FF0030002DFD6E71D4821461CF010
:108F100009FD1CF0F1FDCFE7164A1A49174840F247
:108F20004B1327F0ECF8184B0721A5FB030301FBBB
:108F300005310DA3D3E90023FEF7E2F813490246F9
:108F4000134827F0DCF8404080F311884FF003000D
:108F500002DF104821461CF0E5FC1CF0CDFD6FF04F
:108F60008B00AAE7AFF3008000CA9A3B0000000024
:108F7000095304004C88050044780500D8760500A4
:108F800069420400587705008D49FD1AA088050044
:108F9000A8870500454204002DE9F04F2DED028B16
:108FA0008DB050F8104C04AF01233A1D0221204629
:108FB00065682BF037FD002814DA6C4688B004AAE7
:108FC0005F4BC2E90530032342F8103F5D484FF480
:108FD000C2512BF074FDA5462437BD46BDEC028B73
:108FE000BDE8F08F3B79FF2BF6D05807F4D504236A
:108FF000FA18122120462BF015FD002804DA6C46E1
:1090000088B004AA504BDCE73B79D4F8109097F86D
:109010000580BE7997F907A0D90603F0070B48BF72
:1090200048F080089A0699F8013048BF46F080065B
:109030002BB120461FF0C2FF012389F8013095F8BB
:1090400022504DB3DFF814C140484149BCF900E05B
:10905000B0F90050B1F9003089F800B000229FED5E
:10906000368BACF8002002800A80BAF1000F36D1AE
:109070004EFA88F31BB252468DED028BCDF800A05C
:10908000022120461DF0F8FA45FA86F301228DED03
:10909000028B00921BB229E099F800305BEA0303CF
:1090A000D0D09FED258B012399F8002003FA05F11C
:1090B0000BEA01030A4093420DD000215B1A05F52B
:1090C000807200918DED028B18BF012392B20121B5
:1090D00020461DF0D1FA0135032DE4D1B2E78DED24
:1090E000028B0122534400921BB208220221204627
:1090F0001DF0C2FA0123FA1C032120462BF092FC3A
:10910000002804DA6C4688B004AA124B59E7FB78B1
:109110005B077FF561AF104BFB610A48022307F143
:1091200018024FF48451BB612BF0C9FC002120468A
:1091300020F0AAF850E700BFFFFFFFFFFFFFFFFF8F
:10914000BCD105005C6A0500CCD105000C4E0020A6
:109150000A4E0020F5CF0500DCD105000E4E0020A0
:109160002DE9F0472DED028B9FED498B4A4E84B0DF
:1091700004464FF02003EFF3118783F31288BFF307
:109180006F8FD4F8C8508DB9022104F1E0002CF0A3
:10919000E4FA002843D100238DED008B029304F103
:1091A000D00239463D4825F0CDFCE2E7D4F8CC208A
:1091B0002B68C4F8C830954208BFC4F8CC30D4F846
:1091C000E03043F00203C4F8E030EB6823F004031E
:1091D00043F00103EB606B6887F31188BFF36F8F77
:1091E000284698474FF02003EFF3118983F3128844
:1091F000BFF36F8FEB68990723F0010219D4EA607F
:10920000D4F8E03023F00203C4F8E03089F3118889
:10921000BFF36F8FDB05ACD425F074FBA9E704F135
:10922000D8050022012128462CF09DFC0028F8D109
:10923000B1E7306823F00303EB600028E0D000279B
:10924000D0F80080BA460028DAD04268954201463C
:109250000BD1016897B972683160824200D17160A8
:1092600040F808AB24F06AFF3946B8F1000F0BD084
:10927000D8F8002040460F469046E4E7396072680F
:10928000824208BF7760EBE74246F3E7AFF3008026
:10929000FFFFFFFFFFFFFFFF944D0020195000204C
:1092A0007FB5074B0593022304930648002304AAC5
:1092B0004FF4845103F01AFD07B05DF804FB00BFC2
:1092C000B48F0500646A050008B500F0DBFE18B92C
:1092D000FFF7E6FF002008BD01780348003918BFFA
:1092E00001211FF0D1FFF5E7CC66050070B50E49EE
:1092F0000E4886B02CF0E8FA0D4C0E4B05934FF457
:109300008655022604AA29462046049626F0B1F97D
:10931000094B204604AA2946CDE9046326F0A9F9A1
:10932000002006B070BD00BF1D940200581200203E
:10933000BC6A0500DD8F05003290050090B587B04E
:109340006C4600AF184B7B61022318483B6107F164
:1093500010024FF4865126F08CF909F04FF898B1BD
:1093600010F1780F10D088B06A46114BC2E9053071
:10937000032342F8103F0D484FF4C25126F079F90B
:10938000A5461C37BD4690BD0A4B7B6102233B615D
:1093900007F1100205484FF4865126F06AF9064B92
:1093A00001221A70EDE700BF7C900500BC6A050041
:1093B000A9900500C39005006B4E002008B5034B33
:1093C0001B780BB9FFF7BAFF002008BD6B4E0020D9
:1093D0007FB52CF005FC4FF47A72A0FB020302FB70
:1093E0000131C00B094A0A4B40EA4140106001229A
:1093F0001A70084B05930848022304AA4FF48651BB
:10940000049326F036F907B05DF804FB48260020E7
:109410006A4E0020DF900500BC6A05002DE9F04788
:10942000544B86B0002100AF152218462CF090FF57
:10943000441FAB23FF22A3704FF00109CD236270BC
:1094400000F8052CE37084F8049001F021F96428F9
:1094500028BF64204FF0000A4FF002086D4688B024
:10946000607184F806A084F807806A46424B43483E
:109470000326C2E905384FF4C65142F8106F26F0B2
:10948000F8F83F4A3F4884F80890AD4643464146C5
:1094900084F809A008F028FE002847D13A4B374845
:1094A000C7E9048307F110024FF4865126F0E1F872
:1094B000364C2CF095FB2378DBB14FF47A72A0FB8D
:1094C000020302FB0131324AC30B126843EA4143F3
:1094D0009B1AB3F5FA6F0CD9002323702D4B7B61D7
:1094E000022326483B6107F110024FF4865126F013
:1094F000C0F86C4688B06A46274B5361274B93618E
:109500004FF47A73D361042342F8103F4FF40451AF
:109510001A4826F0AEF84FF40042A5460023204832
:1095200024F076FF1837BD46BDE8F08788B06A465C
:109530001C4B4FF4C651C2E9053042F8106F0F487A
:1095400026F097F8AD4608F059FF002140F2676019
:1095500025F05AFA88B06A46134B5361134B936156
:10956000064842F8106F4FF4C85126F082F8AD4615
:109570009EE700BF554E002020910500BC6A050003
:1095800088020020980200203D9105006A4E0020CC
:1095900048260020E39105001B9205004992050032
:1095A000581200206791050095910500659205000D
:1095B000014824F0C5BE00BFB8020020014824F0D5
:1095C000BFBE00BFA80200207FB5084B0593022351
:1095D00004930748002304AA4FF4825103F086FB4A
:1095E00007B05DF804EB00F027BD00BF7E920500D8
:1095F000BC6A050007B52CF0F3FA4FF47A72A0FBB1
:10960000020302FB0131C00B074A40EA41401060EF
:1096100000234FF400420548CDE9002325F070FCFB
:10962000002003B05DF804FB4C260020B00E0020A3
:10963000014B187800F016BD6C4E0020044B1A78D0
:10964000824202D01870FFF7F3BF0020704700BFBE
:109650006C4E002008B52CF0C3FA4FF47A72A0FBD0
:10966000020302FB0131114AC30B126843EA414372
:109670009B1A0F4A934214DD01F0EEFF20B1BDE8C2
:1096800008400120FFF7DABF0220FFF7D7FF00F004
:1096900067FC002803DABDE80840FFF795BF26F015
:1096A0008FFF044A9342EADC08BD00BF4C2600202D
:1096B00080EE3600E093040008B52CF091FA4FF4E8
:1096C0007A72A0FB020302FB0131C00B044A40EA9C
:1096D00041401060BDE808400020FFF7AFBF00BF69
:1096E0004C260020014B1878704700BF6C4E0020BC
:1096F0002DE9F04F1C4D1D4CDFF878A0DFF878B055
:1097000083B0641BA40800AF0026A946B44204DC61
:1097100000200C37BD46BDE8F08F0136B046444509
:1097200001D10435F2E72B6859F828201B6811682D
:109730007B601846FDF74EFE7B6890B9C7F804D0F1
:1097400088B06A46C2E905A34FF40073938342F8D8
:1097500010BF4FF4E2510346054803F0C7FAD7F8AB
:1097600004D008F10108DAE704EC050010EC05006C
:10977000BC6A0500A092050003000001F8B504468C
:1097800010B900252846F8BD0378002BF9D00F4EFC
:109790000F4FBE420FD30D4EBE42F2D230682BF0B7
:1097A00030FE30B1356821462868FDF713FE0028E9
:1097B000E8D00436F0E730682BF023FE18B13568A6
:1097C0002B68A342DED00436E3E700BF04EC0500BB
:1097D00010EC050082B02DE9F04F97B006AF07F10D
:1097E000680181E80C00154607C83E1D86E80700A1
:1097F00097F880A0D7F86C80FFF7C0FF8146C0B90A
:109800006C4688B006AA394BD561C2E905380423F5
:1098100042F8103F4FF402510346354803F066FA10
:10982000A546012420464437BD46BDE8F04F02B0AE
:109830007047C7E91A5807F1680CBCE80F0007F138
:1098400010040FC49CE8030084E80300C7E904582F
:1098500007F1100EBEE80F0007F1280CACE80F006E
:1098600094E803008CE803007868FFF787FF8368BB
:109870005C6807F1280CE4B107F1400313E90F001D
:109880008DE80F0030469CE80C00A047EB460446EC
:1098900078B188B006AA174BC2E90530032342F815
:1098A000103F134800234FF4C25103F01FFADD4666
:1098B000B8E7D9F808301B78012B02D0022B00D072
:1098C00083B9C7E91A5807F17003CDF810A00FCB80
:1098D0008DE80F0007F168030CCB304625F0F2FE4F
:1098E00004469FE76FF085049CE700BFCB9205001C
:1098F000BC6A0500F29205001FB50A4C2468A468F2
:1099000084420DD183F00103CDE90112039306488F
:109910000022002301A924F077FA044824F010FD66
:1099200004B010BDF8260020E80F0020E826002033
:109930002DE9F04FDFF80081DFF80091384E8DB04F
:1099400002AF00220023391D404624F0B3FA8346BB
:1099500018B12C37BD46BDE8F08FD9F80030FC684F
:109960005868D7E9011225F001FF2E4B002C18BFD3
:109970003346051ED7E9010115DA6C468AB002AA02
:10998000294DC2E9071340F202439384274BC2E9F1
:10999000055042F8103F26485B464FF4325103F021
:1099A000A5F9A546CDE7EA468CB002AADFF890C03B
:1099B000C2F814C09362DFF88CC040F20463938550
:1099C0001C4BC2E906C0C2E9081542F8103F18480E
:1099D0005B464FF47451B4FA84F403F087F9FF2323
:1099E0006409D5463B747D613C762CF0F9F84FF460
:1099F0007A72A0FB020302FB0131C00B40EA414036
:109A0000C90BC7E9080107F1280313E903008DE832
:109A1000030007F110030FCB00F03EFB91E700BFFE
:109A200038930500339305003E93050005000001BF
:109A3000BC6A050007000001E80F0020F82600209E
:109A400074930500439405001FB50023CDE902334C
:109A5000044B8DF80C0001A8019325F0B7FE05B06A
:109A60005DF804FB246D0500044B1A68044B9A4210
:109A700014BF6FF012000020704700BFF8260020CE
:109A8000106D0500F8B5054600AF002842D0234E02
:109A9000336883423CD053B1986840B183685B68B7
:109AA00003B1984733680021986803F0FBF91C491B
:109AB0001C4B8D4214BFED2100212622002025F0F1
:109AC0006FFE041E12DA6D4688B06A46164BC2E974
:109AD0000534032342F8103F144800234FF4C251C9
:109AE00003F004F9AD462046BD46F8BDA8683560D0
:109AF00070B1012103F0D6F93368986883680C4986
:109B00001B6898473368986883689B6803B19847D7
:109B10000024E8E76FF01204E5E700BFF826002014
:109B2000106D050050260020A4930500BC6A0500B6
:109B3000F998020038B5054648B90648FFF7A2FF74
:109B4000041E02DB2846FFF77FFF204638BD6FF07A
:109B50001504FAE7106D0500B0B5104D034600AFCF
:109B60000846012229469847041E12DC6D4688B03B
:109B70006A460B4BC2E90534032342F8103F0948FB
:109B800000234FF4C25103F0B1F8AD462046BD4664
:109B9000B0BD2878FFF7CEFF0446F7E7FF0C0020A2
:109BA000D9930500BC6A050073B50E4614460A49F0
:109BB00001AA1D4627F092F838B1019B3BB9012E4E
:109BC00007D129462046FFF7C7FF02B070BD00202D
:109BD000FBE76FF01500F8E71F9405000148FFF759
:109BE00051BF00BF106D050098B5174C17481849B4
:109BF00000AF2BF025FE204627F005F8C0B101216B
:109C0000204626F0D3FF034690B921686C4688B001
:109C10006A461048C2E905014FF4007191830E496C
:109C200042F8101F0D484FF4E45103F05FF8A546C9
:109C30000B4A002342F8043B0133262BFAD1FFF7ED
:109C4000CDFFBD4698BD00BFE4660500E8260020B4
:109C5000319902002894050003000001BC6A050048
:109C6000502600202DE9F04100AF6D4688B0044633
:109C70006A46DFF8A080214B53610426C2E90680C2
:109C800042F8106F00234FF404511D4803F02EF8E2
:109C90001C4901EB0413AD465B6883B988B06A4682
:109CA0001949D461C2E9051842F8106F14484FF4FD
:109CB000045103F01BF8AD46BD46BDE8F0819A683B
:109CC00001EB041194680831ACB1104A1846A04762
:109CD0000028F1D06C4688B06A460D4BC2E90530C9
:109CE000032342F8103F064800234FF4C45102F00A
:109CF000FDFFA546E0E76FF05700EBE7AA940500EB
:109D0000BC6A0500D8020020C6940500259E02000A
:109D1000E194050083950500F0B5294C8FB004EB64
:109D20000014606804AF83683A21DB68984790B1FB
:109D30006C4688B004AA234BC2E90530032342F8DD
:109D4000103F214800234FF4C45102F0CFFFA54635
:109D50002C37BD46F0BD6068618983683A461B694F
:109D6000984730B16C4688B004AA184BC2E9053058
:109D7000E4E7D7E900010123BB6007F10C0383E8A6
:109D800003006389BB822BF02BFF4FF47A75A0FB95
:109D9000053205FB0121DB0B43EA4143C90BC7E94F
:109DA0000631237B87F8203007F1280313E90F00E1
:109DB0008DE80F0007F108030FCB00F093F9C7E718
:109DC000D802002003950500BC6A0500299505000E
:109DD00010B5134CBFF35B8F54E8002F22F0010144
:109DE00044E800100028F7D1BFF35B8FD20702D5FB
:109DF0000020FFF791FFBFF35B8F54E8003F23F093
:109E0000020244E800210029F7D1BFF35B8F9B07D2
:109E100004D5BDE810400120FFF77EBF10BD00BF94
:109E2000FC260020B0B5194BC91A102900AF4FEA23
:109E3000211411D96D4688B06A46154BC2E9053424
:109E4000032342F8103F134800234FF4C25102F09D
:109E50004DFFAD46BD46B0BD2BF090FB88B1BFF3C2
:109E60005B8F01230C4AA34052E8000F184342E8DD
:109E700000010029F8D1BFF35B8F084824F060FA95
:109E8000E8E72046FFF748FFE4E700BFE0020020D4
:109E900053950500BC6A0500FC260020C80200207E
:109EA0002DE9F843274E284BA3EB060800AF814667
:109EB0000D4606EBC106C8F3C708A84524DD326885
:109EC000D9F800309A420BD189F80450736848469B
:109ED0001B6898470128044605D0022819D0E8B924
:109EE00001350836E9E76C4688B06A46174B53617E
:109EF000174B9361032342F8103F164800234FF499
:109F0000C85102F0F3FEA54600242046BD46BDE838
:109F1000F8836C4688B06A460F4BE8E76D4688B018
:109F20006A460E4B53610A4BC2E90630042342F8DD
:109F3000103F084800234FF4045102F0D7FEAD460D
:109F4000E3E700BF6CD90500ACD905009995050081
:109F5000FB950500BC6A0500B8950500D89505007D
:109F60002DE9F04182B000AF381D23F07DFCDFF811
:109F7000C4807C680023C8F8003018235843183880
:109F800004447B689C4201D200253AE020462BF035
:109F900038FA002842D0204626F0DEFD00283DD1C8
:109FA000204626F03AFE002838D1204626F021FE31
:109FB000064698BB0146204602F074FF20F02003BD
:109FC000783305462AD010F1860F27D000281DDAF5
:109FD0000120D4F8008002F059FF6C468AB06A462E
:109FE0000F4BC2E905380F4B53620F4BC2E907050F
:109FF00042F8103F0D4833464FF4415102F076FECF
:10A00000A54628460837BD46BDE8F081D8F800309F
:10A01000074A42F823400133C8F80030183CB0E743
:10A02000199605000002010305000002BC6A050044
:10A03000080E00200027002070B5084D084E2C683F
:10A04000013C002C02DA00232B6070BD56F824007E
:10A05000012102F027FF013CF3E700BF00270020A9
:10A06000080E00201FB50023CDE90233044B8DF804
:10A070000C0001A8019325F0A9FB05B05DF804FBD5
:10A08000286D05000268034B9A420CBF083000207F
:10A09000704700BF286D050084B030B589B00CACA6
:10A0A00084E80F00002301930CAD084B00930FCD03
:10A0B00002AC0FC495E8030084E80300684625F06D
:10A0C00085FB09B0BDE8304004B070472C6D050039
:10A0D0000268034B9A420CBF08300020704700BF53
:10A0E0002C6D050084B030B58BB00EAC84E80F0049
:10A0F000002301930EAD084B00930FCD02AC0FC4AB
:10A1000095E80F0084E80F00684625F05FFB0BB070
:10A11000BDE8304004B07047306D05000268034B65
:10A120009A420CBF08300020704700BF306D050018
:10A130001FB50023CDE90233044B8DF80C0001A8B4
:10A14000019325F043FB05B05DF804FB346D050079
:10A1500080B500AF88B06A46074BC2E905300323DB
:10A1600042F8103F054800234FF4C25102F0BEFDF3
:10A170006FF00400BD4680BDB3960500BC6A0500C3
:10A1800082B010B502A981E80C0004460C4823F007
:10A1900077FB28B96068BDE8104002B0FFF7D8BF70
:10A1A0006368022B06D125F02EFB0028CCBF0020CF
:10A1B00001206060BDE81040002002B0704700BF81
:10A1C000DB96050082B0B0B500AF07F1100181E861
:10A1D0000C0005461F4823F053FB6B680446B0B9DA
:10A1E0006D4688B06A461C49C2E90513032342F84C
:10A1F000103F4FF4C2510346184802F077FD6FF04C
:10A200000400AD46BD46BDE8B04002B07047012B2A
:10A210000AD0022B03D053B925F0EEFAF2E725F06D
:10A22000F2FA00282046F7DC25F0DFFAEAE76C4670
:10A2300088B06A460A49C2E90513032342F8103F71
:10A24000064800234FF4C25102F050FD6FF0850024
:10A25000A546D7E7DB960500B3960500BC6A050066
:10A26000E59605002DE9F0410E46114642687479E5
:10A27000107800AF8442BD692FD15468901D002230
:10A28000A2422AD030F802EFB6F806C0E64544D123
:10A29000B06810FB01F4A2B20FFA83FE24B205BB32
:10A2A00094FBFEF424B2E8468CB06A46DFF874C032
:10A2B000C2F814C0DFF870C0C2E908130823C2E96D
:10A2C00006C0C2E90A4542F8103F154800234FF482
:10A2D000824102F00BFDC546B4600020BD46BDE8DA
:10A2E000F081D5F804C0BCF1000F12D0BCF800001A
:10A2F000024410B290FBFEF004B213FB00F0121AFD
:10A30000ACF80020B0686D68002DCCD0B5F90050D5
:10A31000C9E794FBFEF424B2F5E70132B0E700BFD1
:10A32000BC6A05003297050063970500F8B54368DD
:10A3300048791A78904200AF22D15A6803F1080593
:10A340005008002282421BD0CE8835F82240B44209
:10A3500019D103EB82036D465B89CB808AB06A46D4
:10A360000A4951610A4913620523C2E9061442F8F9
:10A37000103F084800234FF4245102F0B7FCAD46CB
:10A380000020BD46F8BD0132DCE700BF8D97050017
:10A39000A3970500BC6A05002DE9F04F8DB0456814
:10A3A0004A792B899A4206AF0E4603D16B68002486
:10A3B0009C4201D1002054E0EA6832F81410F2887F
:10A3C000914252D11822002138462BF0C1FF3B6C3C
:10A3D00095F800801B784FF0030B2B331BFB0838DC
:10A3E0002BF0FEFB4FF47A72A0FB020302FB01315B
:10A3F000FF233B740C235C43C00B2B6940EA4140B4
:10A40000EA46C90B8CB0C7E902011B5906AA1849D4
:10A4100051611849C2E9061340F201331385164B06
:10A42000C2E9088B42F8103F144800234FF45451FE
:10A4300002F05CFCB3682D69C7F80480003BD54688
:10A4400018BF0123049307F1180313E90F008DE8E7
:10A450000F002819D7E90023FFF7BCF90028A8BF8F
:10A4600001201C37BD46BDE8F08F0134A0E700BFD6
:10A47000CB9705001298050006000001BC6A050094
:10A480001FB50023CDE90233044B8DF80C0001A861
:10A49000019325F09BF905B05DF804FBFC6D050008
:10A4A0000268034B9A420CBF08300020704700BF7F
:10A4B000FC6D050008B501F033F9BDE8084001491D
:10A4C0002BF0EBB90803002007B508482AF099FFE4
:10A4D00048B14FF4F0120023CDE9002304480022D4
:10A4E000002324F00DFD03B05DF804FB14670500A4
:10A4F000E80E002008B5FFF7C5FD10B96FF0850024
:10A5000008BDFFF7EFF838B10138C0B20128F5D81F
:10A5100003482BF0B8FB01E0FFF7D6FF0020EFE780
:10A52000E80E002080B50C4B00AF88B01B686A466F
:10A530000A49C2E905134FF400739383084B42F8AC
:10A54000103F084800234FF4E25102F0CFFB6FF0B8
:10A550001200BD4680BD00BF146705008598050048
:10A5600003000001BC6A050008B506482AF049FF4F
:10A5700018B9BDE80840FFF7D5BFFFF7A5FF0020D9
:10A5800008BD00BF14670500F0B583B000AF364DBD
:10A59000AE682D21F36828469847044620B36D46DF
:10A5A00088B06A46314B5361314BC2E9063404230B
:10A5B00042F8103F00234FF404512E4802F096FB5E
:10A5C000AD466D4688B06A462B4B53612B4BC2E9B2
:10A5D0000634042342F8103F264800234FF4045168
:10A5E00002F084FBAD463BE02D2133693A46284614
:10A5F0009847044620B16D4688B06A46204BD2E7A2
:10A60000204E3B6832789A422AD06D4688B033702B
:10A610006A461D495161DBB2D3611549916104233A
:10A6200042F8103F4FF404510346124802F05EFB1B
:10A63000AD46307803F028FD044658B188B06A462C
:10A64000124BC2E90530032342F8103F00234FF4B8
:10A65000C451B2E73078FFF713FF04460028B0D1A9
:10A660000C37BD46F0BD00BF14670500A698050075
:10A670007B990500BC6A0500539905008E99050079
:10A68000CD9805006D4E0020FB980500259905002A
:10A69000014B1878704700BF6D4E00201FB5002396
:10A6A000CDE90233044B8DF80C0001A8019325F08D
:10A6B0008DF805B05DF804FB046E050030B587B079
:10A6C0008C89ADF815400724029404AC0194064D22
:10A6D000BDF828400495009401258DF8145029F008
:10A6E000F4F907B030BD00BF1B0000271FB50C24D4
:10A6F0000294044C0194BDF81840009429F0E5F947
:10A7000004B010BD934E00201FB510240294044CD9
:10A710000194BDF81840009429F0D7F904B010BD99
:10A72000834E002008B5BDF808101944012908DC43
:10A730003BB1054B127805481A7023F001FE012049
:10A7400008BD6FF00600FBE76E4E0020A803002056
:10A7500007B5064B00930649064805234FF43E72A1
:10A7600023F0F4FD002003B05DF804FB086E050043
:10A7700020500020881200202DE9F04F91B006AF44
:10A780006E46B7F850B0CC680BEB03098AB092461E
:10A790001D461FFA89F906AA504BDFF86081536104
:10A7A0000523C2E9068B15624D4842F8103F4FF46D
:10A7B000245125F0D6F8B9F1140FB54600F28A807D
:10A7C00014202A46514600FB0B402BF099FDB9F1AD
:10A7D0000B0F7AD9A14419F8011C002975D1202248
:10A7E000781D2BF0B5FD01233B71D4F80330C7F879
:10A7F0001530D4F80730C7F819302378C7F81D3062
:10A80000A37887F822300B3410222146781D24F0DB
:10A810003DFF0F2811D98AB006AA324B3048C2E951
:10A8200005347B1DD361304B1362304B42F8103F2F
:10A830004FF4215125F095F8B5466E468CB0D7F807
:10A840001500D7F8191097F822E006AA7B1DC2E977
:10A850000730DFF8ACC0224840F201339385244B27
:10A86000C2E905C8C2E9091E42F8103F4FF474510D
:10A8700025F077F8B54600F09FFC07F1100E8146F1
:10A88000BEE80F00EC46ACE80F009EE803004CF871
:10A89000040B07F104088CF8001098E80E004846F5
:10A8A00000F060FD88B18AB006AA124BD061C2E9FF
:10A8B00005344FF4007313840F4B42F8103F0848DF
:10A8C0004FF4115125F04DF8B54628462C37BD46BA
:10A8D000BDE8F08F6FF00605F7E700BFC3990500EC
:10A8E000BC6A0500D89905000002010304000002BB
:10A8F00007000001449A050004000001369C050091
:10A900001E9A050080B500AF88B06A46074B5361B8
:10A91000074B0848C2E90631042342F8103F4FF4C0
:10A92000045125F01EF8BD4680BD00BF659A0500A4
:10A930001E9C0500BC6A050080B500AF88B06A4661
:10A94000074B5361074B0848C2E90631042342F81C
:10A95000103F4FF4045125F004F8BD4680BD00BF00
:10A96000659A05004D9C0500BC6A050080B500AFE6
:10A9700088B06A46074B5361074B0848C2E9063165
:10A98000042342F8103F4FF4045124F0EAFFBD467F
:10A9900080BD00BF659A0500689C0500BC6A050083
:10A9A000B0B50C4C00AF6D4688B023786A460A49B2
:10A9B00051610A490A48C2E90613042342F8103FCC
:10A9C0004FF4045124F0CDFFAD462078FFF7B2F8E4
:10A9D000BD46B0BD6E4E0020729A05007F9C0500FA
:10A9E000BC6A0500F0B5134C134D85B000AF0022D2
:10A9F00000233946204623F05DFA10B11437BD46D6
:10AA0000F0BD10223946284624F097FF0028EED0EA
:10AA10006E4688B06A46094B5361094BC2E906305D
:10AA2000042342F8103F07484FF4045124F099FFE3
:10AA3000B546DCE718100020246E0500A79A050033
:10AA4000019C0500BC6A05002DE9F041134D144C32
:10AA5000144E00AF114900220023204623F02AFAA9
:10AA600010B1BD46BDE8F0810C222946304624F0E5
:10AA700064FF0028EED0E84688B06A460A4B53616E
:10AA80000A4BC2E90630042342F8103F08484FF44D
:10AA9000045124F066FFC546DCE700BF934E00205A
:10AAA00048100020B06E0500A79A0500E69B05003F
:10AAB000BC6A0500B0B586B000AF1C491C4840F622
:10AAC000CD42002323F0A0F9044650B310F10B0F40
:10AAD00017D1184B7B61022317483B6107F1100225
:10AAE0004FF4845124F03DFF0022002339461048E2
:10AAF00023F0E0F9FFF7DEFF044620461837BD4695
:10AB0000B0BD6D4688B06A460C4BC2E905300323E0
:10AB100042F8103F08484FF4C45124F022FFAD46DC
:10AB2000EBE7074907482AF0B8FEE6E7834E002026
:10AB300018100020BE9A0500BC6A05000A9B05009B
:10AB40002803002088120020B0B58AB000AF3D1D58
:10AB500085E807001D4840F6CD420023294623F032
:10AB600053F9044668B310F10B0F1AD1184B7B62EE
:10AB7000022318483B6207F120024FF4845124F06D
:10AB8000F0FE0022002307F11001104823F092F993
:10AB900095E80700FFF7D8FF044620462837BD4652
:10ABA000B0BD6D4688B06A460B4BC2E90530032341
:10ABB00042F8103F07484FF4C45124F0D2FEAD468E
:10ABC000EBE7064906482AF068FEE6E74810002051
:10ABD000369B0500BC6A0500809B05001803002019
:10ABE000881200202DE9F04F8BB0037800AF032BC3
:10ABF00073D8DFE803F002192F114278404D02F0BC
:10AC00000701D40801228A4081782B5DD2B241B17C
:10AC100013432B55FFF74EFF00202C37BD46BDE8F0
:10AC2000F08F23EA0203F4E7C37A3B7501237B75B7
:10AC3000D0F80130C7F81630D0F80530C7F81A3010
:10AC4000B0F80930FB8307F1140393E80700FFF71E
:10AC50007BFFE1E743787B60C3783B60B0F805A0F9
:10AC6000D0F8099090F80280264C1026264BD4F894
:10AC700000C007F1140203F1100B964618685968DA
:10AC8000154603C508335B452A46F7D11B782B7060
:10AC90007146604627F0F8FAC0B994F834307A6803
:10ACA0009A4213D1B8F100083B683B7318BF4FF0CC
:10ACB0000108082207F10C012046A7F80DA0C7F8EB
:10ACC0000F9087F8138024F038FEA6E7013E04F1C8
:10ACD0001404CBD16FF012009FE76C4688B06A462F
:10ACE0000A490B48C2E90513032342F8103F4FF409
:10ACF000C45124F036FE6FF08500A5468DE700BFF5
:10AD0000834E0020106E0500006C0500AA9B050014
:10AD1000BC6A0500014B1970704700BFA24E0020AD
:10AD2000014B18600020704704270020084A094B97
:10AD300012781B78002062F30700074A12785B0044
:10AD400062F30F20DBB282B063F3174002B07047AA
:10AD50009F4E0020A34E0020A04E002013B50C4BA8
:10AD60001C6894B1FFF7E2FF8DF80400C0F30723DD
:10AD7000C0F307408DF805308DF8060001990548AD
:10AD8000234602B0BDE81040184702B010BD00BF16
:10AD90000427002010EC050010B5084808F0A2FABE
:10ADA000074808F06BFC074B074800241C70074B52
:10ADB00001221A7023F0C4FA204610BDF0030020CF
:10ADC000E0030020A14E0020D00300209F4E002071
:10ADD0000B4BB1FA81F010B540090C461870FFF723
:10ADE0005DFC3C2C0AD1074B1B783BB1064B074856
:10ADF00001221A70BDE8104023F0A2BA10BD00BFB6
:10AE0000A34E0020A04E0020A14E002010040020E0
:10AE100070B503788AB004460E4607AD032B20D8E0
:10AE2000DFE803F002191B1D11492846FCF7DCFA84
:10AE3000059563780493A3780393E37802932379C9
:10AE4000019363790093A3790A4A1E21304624F0C6
:10AE50002FF90AB070BD0849E7E70849E5E7084956
:10AE6000E3E7084A0A21284624F022F9E0E700BF78
:10AE7000A59C0500C79C0500AC9C0500B39C050083
:10AE8000BD9C05007EC90500B0B588B000AF0C467A
:10AE900027F00DFF3946FFF7BBFF6D468AB06A46C3
:10AEA000114B5361114B1462C2E9063740F2013372
:10AEB00093840F4B42F8103F0E4800234FF4345157
:10AEC00001F014FF0C4B0024AD4620461C70FFF728
:10AED000E5FB0A4B1B7823B1094B0A481C7023F091
:10AEE0002FFA2037BD46B0BDEA9C05000A9E05003A
:10AEF00005000001BC6A0500A34E0020A04E002002
:10AF0000A14E00201004002038B507220C46064947
:10AF100005462BF0B9F928B12B682360AB88A380D4
:10AF2000AB79A37138BD00BF28AC0500F0B5294E40
:10AF3000294B2A498BB002AF3068B2881C78786000
:10AF40003D1DB3793A8100202A46AB710CF088FE92
:10AF50003146072228462BF097F9214B064660B36D
:10AF60003CBB03202246214601241C700023C7E974
:10AF70000402C7E90615BB81BB731A460093194644
:10AF800007F10C0007F008FA00280FDA6C4688B0C9
:10AF900002AA144BC2E90530032342F8103F1248BD
:10AFA00000234FF4C25101F0A1FEA5462437BD464F
:10AFB000F0BD1320A022F021D6E70C4D18700FCD64
:10AFC00007F10C040FC42B6823600949009633462F
:10AFD0000322D5E728AC0500A14E002009AF0200EE
:10AFE000A24E0020139D0500BC6A0500606B0500A1
:10AFF000606F0500B0B582B000AF01201949002490
:10B000003A1D7C6008F040F87868A0B1132127F061
:10B01000C6FD00280FDA6D4688B06A46124BC2E9B9
:10B020000530032342F8103F104823464FF4C45123
:10B0300001F05CFEAD4607F0E1F900280FDA6C463E
:10B0400088B06A460A4BC2E90530032342F8103F34
:10B05000064800234FF4C45101F048FEA5460837C6
:10B06000BD46B0BD69F90400349D0500BC6A050009
:10B07000649D050008B5054B187020B1044823F005
:10B080005FF9002008BDFFF7B5FFFAE7A04E0020EA
:10B0900010040020B0B5002000AF06F0A1FA04466D
:10B0A00090B16D4688B06A46094BC2E9053003236A
:10B0B00042F8103F074800234FF4C25101F016FE3A
:10B0C000AD462046BD46B0BD034803F095F8F8E70D
:10B0D000849D0500BC6A0500B8030020F0B589B066
:10B0E00000AF0D46144627F0E2FD3946FFF790FE0B
:10B0F0006E46BCB98AB06A46134B5361134B156256
:10B10000C2E9063740F201339384114B42F8103FF5
:10B110004FF4345123460F4801F0E8FD2437B5467B
:10B12000BD46F0BD8AB06A460B4BC2E905374FF405
:10B1300000739384064BC2E9075442F8103F002382
:10B140004FF43151E7E700BF9A9D0500289E0500A6
:10B1500005000001BC6A0500BC9D0500F0B589B082
:10B1600000AF0E4615461C4627F0A1FD3946FFF7F5
:10B170004FFE8CB068460C4B43610C4B8462C0E9B7
:10B180000637024640F201338385094BC0E9086562
:10B1900042F8103F074800234FF4745101F0A6FD18
:10B1A0002437BD46F0BD00BFE09D0500179E050099
:10B1B00007000001BC6A05000048704710EC05005C
:10B1C0007FB5074B05930748022304AA4FF4845127
:10B1D000049324F0CDFB6FF0120007B05DF804FB80
:10B1E000489E0500BC6A0500F0B5284C284E83B087
:10B1F00000AFB442254602D36FF0120018E02B686E
:10B200009B680434BBB9234C2368AB421FD16C4606
:10B2100088B06A46204B5361204B9361032342F868
:10B22000103F1F484FF4C85124F0A2FBA546002050
:10B230000C37BD46F0BD9847C0F3072338717B71CA
:10B24000C0F30743C0B2BB710028D2D0DBE7ABB17B
:10B250001B685B6893B10020984700280EDA6E46A1
:10B2600088B06A460F4BC2E90530032342F8103F0D
:10B270000B484FF4C45124F07BFBB5462B68256086
:10B280005B68002BD3D001209847D1E710EC050074
:10B2900014EC0500082700207C9E0500939F050004
:10B2A000BC6A0500AF9E050070B5094C094D0A4EF9
:10B2B000AC42234603D3BDE87040FFF795BF1B683F
:10B2C000DB680434002BF3D030469847F0E700BF2A
:10B2D00010EC050014EC0500DDB20200F0B51C4BCB
:10B2E00083B01B6800AF83427960C1F307442BD160
:10B2F0006D468CB0787939796A46164E5661164E8D
:10B300009462C2E906630723C2E9080142F8103FCC
:10B3100012484FF4645124F02BFBAD461CB10020C1
:10B320000C37BD46F0BD88B06A460D4B0B48C2E9EC
:10B330000536032342F8103F4FF4C85124F018FBA0
:10B34000AD46FFF751FFEBE7FFF74EFFE7E700BF22
:10B3500008270020E89E0500B49F0500BC6A050090
:10B36000369F050084B02DE9F0439BB004AF07F190
:10B370007C006C4688B080E80E0004AA654B5361DF
:10B38000654D9561032342F8103F64484FF4C8515E
:10B3900024F0EEFA97F87C30012BA54640F0A3800C
:10B3A000D7F88D10D7F8913097F89A60B96007F107
:10B3B0007D008CB07860FB6004AADFF874C1C2E93C
:10B3C000093640F201339385554BC2E905C5C2E900
:10B3D000070142F8103F51484FF4745124F0C8FA65
:10B3E0001822A546002107F110002AF0B1FFD7F876
:10B3F00095902AF0F5FB4FF47A73A0FB030C03FB46
:10B4000001CCC40B97F89A3044EA4C444FEADC3C38
:10B41000C7E9059407F14008C7F81CC0002B37D0D6
:10B4200007F110060FCE07F128050FC596E80300B7
:10B4300085E80300C7E90B94C7F834C007F1280674
:10B440000FCE44460FC495E8030084E803007868F3
:10B4500024F036F9B0B96FF015006C468AB07B68FD
:10B4600004AA3049D061C2E905134FF40073138474
:10B470002D4B42F8103F29484FF4115124F078FA2F
:10B48000A54630E083689C680CBB6FF08500E4E75C
:10B4900007F110050FCD07F128060FC695E8030048
:10B4A00086E80300C7E90B94C7F834C007F1280405
:10B4B0000FCC45460FC596E8030085E80300786881
:10B4C00024F0FEF80028C6D08368DC68DCE707F1CA
:10B4D000580313E90F008DE80F00381D98E80C00A1
:10B4E000A0470028B9D188B097F87C3004AA0F494A
:10B4F0000A48C2E90513032342F8103F4FF4C45130
:10B5000024F036FA6FF085005C37BD46BDE8F043A5
:10B5100004B070475A9F0500D09F0500BC6A050023
:10B5200007000001449A0500040000015F9F050028
:10B530001E9A0500044B1B681BB11B680BB11B68EE
:10B540000BB9FFF73DBE184708270020B0B584B0FF
:10B550006D4600AF88B004466A462B4B53612B4BB7
:10B560009361032342F8103F29484FF4C85124F057
:10B57000FFF92046AD46FEF7ABFD054658B10D225A
:10B58000002138462AF0E4FE6B687B702B7ABB7092
:10B590003846FFF7CFFF2046FEF7C0FD0346E8B16F
:10B5A0000168012904D06FF085001037BD46B0BD99
:10B5B0000022C7F80920C7F80120C7F80520397014
:10B5C000021D03CAC7F80100C7F805101288A7F8C2
:10B5D00009201B7EFB723846FFF7ACFF2046FEF7C2
:10B5E0005FFF08B90020E0E70023C7F80130C7F883
:10B5F0000530C7F8093003233B7003787B70384669
:10B60000FFF798FFEEE700BF5A9F0500799F0500FE
:10B61000BC6A05007FB5084B0593022304930748D5
:10B62000002304AA4FF4825101F060FB6FF0150073
:10B6300007B05DF804FB00BFFF9F0500BC6A050072
:10B6400008B5044802F096F918B1BDE80840FFF7C4
:10B65000E1BF08BDB9B60200B0B5134C00AF6D46EE
:10B6600088B023786A46114951611149C2E906132D
:10B67000042342F8103F0F4800234FF4045101F017
:10B6800035FB23780B2BAD464FF0010008D89840CE
:10B6900010F4CD6F06D110F4016F0CBF0120002013
:10B6A000BD46B0BD0220FBE7CF0D002014A0050071
:10B6B00022A00500BC6A05000A2810B514D00B4C66
:10B6C0002070FFF7C9FF0228094A0BD121781378AF
:10B6D000032908BF43F001031370BDE8104005487B
:10B6E00022F02EBE0023F7E710BD00BFCF0D0020D3
:10B6F000A44E00202004002007B5064B0093064905
:10B7000006480A234FF4407222F020FE002003B0C6
:10B710005DF804FB7C6F05001853002070130020B7
:10B7200000487047701300207FB5094B0593022332
:10B730000493002304AA4FF48651064801F0D6FA78
:10B7400002F070FE25F0C3FA002007B05DF804FB9C
:10B7500051A00500BC6A050010B5094C0A4491428D
:10B7600000D110BD11F8013B584003090001E35C12
:10B77000C0B2434018091B01205CDBB25840EEE721
:10B7800066A005002DE9F04F91B08407009302F008
:10B7900004030293C2F3C20303F10103DDF86890CE
:10B7A000039205460E46059340F0BA81041D30B160
:10B7B000072909D86FF01B0011B0BDE8F08F01F028
:10B7C0000706341DC6F10806009B4FF00008591EFD
:10B7D0004FF0040A4FF0FF330193CDF81080474635
:10B7E000C34653460DB1009820600598002800F329
:10B7F000E8809848009A824203D397488242C0F07A
:10B80000E080039AA4EB050E92074FEA9E0000F138
:10B8100003810F2F00F2B180002D00F0058107F1A8
:10B8200040020DEB020C019A0CF8200C0CF8102CC5
:10B83000049801300490E7E07A285DD84B280ED8B0
:10B84000472859D829282DD8252852D054D820281F
:10B850007AD02338D0F1000B4BEB000B74E04C385E
:10B860002E2849D8DFE800F0704848484848484842
:10B87000484848484B484848484848484859484B31
:10B880004B595959704B6D487048184B18484882AD
:10B890007F4B48484B487F0000204FF0000B4FF093
:10B8A000040A38E02A38C0B2012202FA00F010EA95
:10B8B0000E0F49D110F0625C2FD110EA020B43D079
:10B8C0006046013C5444B4FBFAF40AFB04F4002D36
:10B8D00061D0A3EB050CA4446645FFF46BAF0028D0
:10B8E00068D1042B47D159F8043B23600434042366
:10B8F0002AE0019A013A01924FF0000B24E011F87E
:10B90000010C6C2834D111F8023C00206C2B8346CA
:10B91000C5D14FF0080A5346D3E709F1070929F0CA
:10B9200007090734F9E802AB24F0070435B106989B
:10B930002044B0423FF63EAFC4E900AB08344FF0BC
:10B94000000B4FF0080A534611F8010F002878D079
:10B95000BBF1000F7FF470AF2528F5D1019B0133B7
:10B9600001934FF0010B4FF0040AECE7584694E7BF
:10B9700000208346A5E7082B02D06FF015001BE7D7
:10B9800009F1070929F00709B9EC027B84ED007B76
:10B9900008340823D8E768B9042B02D109F1040957
:10B9A000A4E7082BE9D109F1070929F0070909F1F2
:10B9B0000809EDE705980138059059F8040B009047
:10B9C00010E7039A900720D5A4EB050E4FEA9E00DE
:10B9D0004FF0010CBEF5007FCFD20F2FCDD8F5B1BF
:10B9E00007F140020DEB020EC0B2019A0EF8200CD6
:10B9F0000EF8102CBCF1000F3FF41AAF60F07F007E
:10BA00000EF8200C08F101080137C5F108020434D2
:10BA100006924FF6DA7E97E74FF0000CDAE7BCF1BA
:10BA2000000F01D00136EFE7029A0236002AEBD16F
:10BA30000098CDE90631FBF7DFFCDDE9063106446D
:10BA4000E2E7631BB3F5806F97D23DB9A6F1080416
:10BA5000E018B1E69C630500ACD90500029A2860A5
:10BA60009B082B709DF81030C2B1EB7085F80280F6
:10BA7000B8F1000F05D008A80022C5F1010C9742CB
:10BA80000ED1C5F101030DF120094FF0000A019319
:10BA90000DF1300B574512D1601B8DE66B70E5E759
:10BAA00010F8013B190608D504EB0C0E764503F09F
:10BAB0007F03FFF47FAE04F8013B0132DFE7B8F10A
:10BAC000000F03D099F90020002A17DB029BD3B1A5
:10BAD0001AF80B2004F8012B0022019B981820442F
:10BAE0008642FFF467AE99F8000004F8010B009954
:10BAF000039220462AF004FC039A14440AF1010A36
:10BB000009F10109C6E799F8002055F822300093A1
:10BB1000029B45F822300098FBF76EFC421CDCE7E4
:10BB20006FF00D0048E600BF2DE9F04F95B000AF73
:10BB300090F802B0BB61BB6F7A62C3F3C0030446E6
:10BB40003B618A4641B9457800780BEB8000204480
:10BB5000554517D8A0EB040AE3787B61BBF1000FD1
:10BB600002D0BB6FD80716D47B6953BB7B6A1BB16D
:10BB7000BA69514620469847554628465437BD462F
:10BB8000BDE8F08F461C3046FBF736FC01303044F0
:10BB90000AF1010ADCE723783B629B00FB603B6A09
:10BBA0006268FA6104EB83097B6A002B40F0FE8037
:10BBB0005546C84609EB0B0A0026D04551D1D94459
:10BBC00013E0BB6F9907D1D523783B6299469B0060
:10BBD000FB606368FB617B6A04EB8909002B7AD107
:10BBE0005546BBF1000F4FD15E46BB6F13F0050FFA
:10BBF0007B6909EB430ABB6F03F002030CBF4FF0F4
:10BC0000020B4FF0010B7B62D145B6D019F8021B35
:10BC100019F8013C54F82380AA4B984502D3AA4B4B
:10BC2000984538D33B69002B42D0F86923F0AAFE2F
:10BC300000283DD0E8468AB06A46A44B5361FB69B0
:10BC4000C2E906314FF400731384A14B42F8103F50
:10BC5000A04800234FF4125101F048F8023DC546B8
:10BC6000D2E718F8013B54F82300FBF7C5FBFB6F44
:10BC700001303BB1D7F880309E423EBFFB6F23F8C6
:10BC800016000136054498E7BB6F13F004061CBF8D
:10BC90007E6AD944A9E73B6923B1F86923F072FEB3
:10BCA0000028C7D1BB6FDA0705D4A5EB0B05ABE7BE
:10BCB0007B6A002BA8D04046FBF79EFBFB6F43B18D
:10BCC000D7F880309E423FBFFA6F431C22F81630EF
:10BCD0000136054498E7BBF1000F6DD0BB6F13F040
:10BCE00004066CD0D846002607F140005A46494663
:10BCF0002AF006FB7B695B007B607B69D94409EB1A
:10BD00004303BB60BB6F03F002033B60BB684B4562
:10BD100057D1B96F6378B86F890706EB030254BF38
:10BD20004FEA58010021C507D2B200F19A8010F005
:10BD3000040F14BF40460020FB616270A070E170E8
:10BD4000BA69F9687B6A20469847051EFFF615AF69
:10BD50003B6A2370FB6963707B69E3704146BA6993
:10BD60007B6A84F802B007F140009847B0F1000800
:10BD7000C0F2A480FB68BA69AAEB0B01C91A7B6800
:10BD80004846C91A7B6A98470028C0F29980A8449F
:10BD900008EB00054FF0000B07F1300AB34562D302
:10BDA0000021BA697B6A08469847E6E65E464FF08E
:10BDB000000807F1300099E75E46D8469AE7B0469A
:10BDC00098E719F8021B3F4B19F8015C54F825005D
:10BDD000984202D33C4B98421DD33B6923B1F8698A
:10BDE00023F0D0FD002891D13B68FBB908F128036E
:10BDF00007F1280208F1010003EB020C07F15003E0
:10BE000053FA80F008F102080CF8101C5FFA88F869
:10BE100000F8105C7AE73B692BB1F86923F0B2FDBA
:10BE200000287FF473AFBB6FDB0709D506F1280349
:10BE300007F12802711C9E1806F8205CCEB265E757
:10BE4000BB6F58077FF562AF08F1280307F128029E
:10BE500008F1010103EB020808F8105C5FFA81F8B1
:10BE600054E7002068E71BF80A3087F82F3054F8B1
:10BE70002390FB6FFBB133F81B80BA697B6A012109
:10BE800007F12F00984700281ADB0544B8F1000F8E
:10BE900006D14846FBF7B0FA00F101081FFA88F80E
:10BEA000BA697B6A414648469847002808DB054442
:10BEB0000BF1010B72E7D7F87C80DEE745465CE6C4
:10BEC00005465AE69C630500ACD9050076A005003E
:10BED00004000001046A050080B505460E461746B9
:10BEE000984622F0C5FD03462AF04EFADFF8189076
:10BEF000044649F80030424630463946A84754F8CF
:10BF0000090003F05FF800BF080000002DE9F047CA
:10BF1000058B04462807904611D4022905F0070531
:10BF200040F0CD80204623F0C0FF78B10138218B4E
:10BF3000042811D8DFE800F0C3106D8595000129B1
:10BF40000CBF45F0100545F02005258388F31188C6
:10BF5000BFF36F8FBDE8F08701F0070AAA4500F034
:10BF6000A6800027B9463E46A368002B00F0BD809E
:10BF700041F00801218388F31188BFF36F8FA16816
:10BF8000002900F0BB800D68002900F0B780D1F8CF
:10BF90000480334652462046C047002D76D02B6899
:10BFA00029461D46F0E701F007035A1F012A1BD856
:10BFB000002221F00701062B276889B2C4E900227C
:10BFC00009D13B4603E0628B013262831B68002B80
:10BFD000F9D141F002012183204623F066FF0028B9
:10BFE0007BD041F0200177E0042B0AD121F007013A
:10BFF00089B22183204623F058FF10B141F020017F
:10C000002183218B01F0070AAA4550D00027B946A9
:10C01000AAE7236921F0070141F00601062DD3F8B4
:10C02000009021832DD1B9F1000F40D041F00801DB
:10C03000218388F31188BFF36F8F3A492046C847A0
:10C0400029E021F00701236941F0040189B2042DA0
:10C05000D3F804902183E6D000273E464FF0040A2F
:10C0600082E721F00701236941F0050189B2052D1E
:10C07000D3F808902183D6D000273E464FF0050A1A
:10C0800072E700273E464FF0060A6DE72B4687E72A
:10C09000B9F1000FD1D14FF02003EFF3118883F3F2
:10C0A0001288BFF36F8F238B23F008032383258B24
:10C0B000EA062ED525F01003238305F007056669EF
:10C0C000218B002EBFF66FAF00232768C4E9003331
:10C0D00021F0070141F001012183218B01F0070AC2
:10C0E000AA454FF000097FF43FAF002F9BD041F0ED
:10C0F0000801218388F31188BFF36F8F002FC7D009
:10C100003D68394633465246204623F0FAFE2F4614
:10C11000F4E7AB067FF51AAF25F02003238305F083
:10C120000705FFE62FFF040008B504464FF0200284
:10C13000EFF3118382F31288BFF36F8F1EF0D8FCE8
:10C14000204603F053FA034823F0BAFC03F0AAF8A0
:10C15000FCE700BF2AA105001EF0FCBC2DE9F74357
:10C160000F4606460821C06ADFF8509024F0CDFA49
:10C170003C68241A80463C6004EA0905AC4203D8B6
:10C18000002003B0BDE8F08308236A46214630460C
:10C1900024F02BFA0028F4D16946304624F0BFFA87
:10C1A00040B1BDF80230BDF804203C6005EA090545
:10C1B00013441D44A4EB0804E0E700BF0000FFFFA8
:10C1C0002DE9F04F8FB0044600AF00F1140840464F
:10C1D00029F0F5F9A06A8368DB689847E06288B9BE
:10C1E0008D4B7B6302238D483B6307F130024FF494
:10C1F00082516FF0150524F085FA28463C37BD467C
:10C20000BDE8F08FA06A8368DB6898470368013B4C
:10C210001F2B01D9824BE4E7A06A216807F11402C1
:10C2200028F067FB08B17F4BDBE7A5892DB1BB691F
:10C23000B5FBF3F203FB12550DB17B4BD1E7E3895C
:10C24000012B01D8794BCCE7E36A3D6093F804A059
:10C250004FF0FF334FF0FF32404621F085FEE06A99
:10C26000082124F052FAA9460646E3891FFA85FB05
:10C270005B4508D8E3894B4523D1404621F0EEFECB
:10C280006FF02C05B9E7A1892B04891B13FA81F102
:10C29000524608232046396024F0F5F978B1394632
:10C2A000204624F0B0F909F1010939680823524603
:10C2B00020461FFA89F924F0E6F90028DAD0013582
:10C2C000D3E75B450BD1396808235246891B2046CA
:10C2D00024F0D9F918B93946204624F094F93946A2
:10C2E0002046FFF73BFF054618B1404621F0B6FE59
:10C2F00083E73B6863604FEA13494FEA0949C4F892
:10C300000890D4E9011399420FD308233A1D20461F
:10C3100024F06BF905460028E7D13B1D13F8012BEB
:10C32000924544D10135082DF8D163681B0C1B04DC
:10C33000394620463B6024F066F9A38939685246A5
:10C34000204624F0A0F9051ECFDB636800F0828050
:10C3500006EB03094FF6FF7AA389C7F800901FFA8E
:10C3600089F29B1B9A423CD3314B7B6302232B48BF
:10C370003B6307F130024FF4865124F0C3F92046A5
:10C38000616824F0A5F905460028AED16368294A02
:10C39000A18913400B44A3EB460363601340A360E1
:10C3A000204624F0A0FA0546002D6FD09DE7391DE8
:10C3B000204624F0B4F9626810B9921B6260A0E7CD
:10C3C0003D89F988E06AC4F80890294424F09DF971
:10C3D00048449042A060F0D1002DEED06FF01C05D3
:10C3E0009CE0082307F10C024946204624F0FDF8A2
:10C3F000054600287FF479AF07F10C01204624F0B0
:10C400008EF930B1BB89534503D13B8A002B00F034
:10C410008B80B144A0E700BF67A105001C6A05003E
:10C4200089A10500A6A10500BEA10500D2A10500B5
:10C430002FA205000000FFFF5B1A5246204624F0A1
:10C4400022F9051EFFF651AF08D0E26AA368126810
:10C450001344A360D4E901318B42EDD86168A3890C
:10C4600001EB46029A429FD1DFF80091A36801EAEE
:10C470000902934298D0204624F02AF90546002864
:10C480007FF433AF636803EA0903A360A389A2883A
:10C49000A3EB46039A423DD0404621F0DFFD012345
:10C4A000E84688B02374E289A3896D462A49EB6186
:10C4B0002E464FF00409C5E9051246F8109F27489B
:10C4C00032464FF4035124F01DF9C5466368AD466A
:10C4D000234A6A611A0C9BB2AA61EB611F48C5F836
:10C4E000109032464FF4035124F00CF9C546A3686E
:10C4F000AD461C4A6A611A0C9BB2AA61EB61C5F891
:10C500001090164832464FF4035124F0FBF80025F2
:10C51000C54672E6204624F0CFF90546404621F094
:10C520009DFD002DBBD068E60F4B7B6302233B6370
:10C5300007F1300209484FF4865124F0E3F86368AC
:10C540001B0C1B04394620463B6024F05CF839681C
:10C55000204624F0BDF826E7F5A105001C6A050079
:10C560000CA205001EA2050056A205000000FFFF58
:10C570002DE9F04F1D46037C8DB004468946904658
:10C580007BB9674B0B93674802230AAA4FF4825189
:10C590006FF00C060A9324F0B5F830460DB0BDE8F4
:10C5A000F08FC26A0821104624F0AFF8294682466F
:10C5B000104624F0AAF8A389A3EB8A03AB420746EE
:10C5C000C0F0AA801DB1B8F1000F00F0A58063682B
:10C5D000039304AA03A92046DDF80CB024F0D7F891
:10C5E00006460028D9D1BDF810304B4505D0626809
:10C5F000039B9A42EDD1E5B9CFE704A9204624F088
:10C600008EF80028F3D0BDF81200BDF8143075B1D3
:10C61000AB420ED14FEA1B41090401442B4642466E
:10C62000204623F0FDFF002803DC0646B5E7002B7B
:10C63000B3D0002F3DD104F1140301934FF0FF322A
:10C640000198DFF8E4B04FF0FF3321F08DFCE3896F
:10C650009E425ED0D4E90123F9188A422CD3ADF86A
:10C660001A3006A8FF238DF81E30ADF81890ADF8EB
:10C670001C5023F0FFFFA1682B464246204624F0C1
:10C68000D0F829468246E06A24F03FF8A2680244C6
:10C69000A260BAF1000F07D106A9204624F0FBF8EA
:10C6A000002814BF8246AA46019821F0D7FC5646BE
:10C6B00073E75744BFB2BEE7E06A082124F025F8CB
:10C6C0004FF6FF73ADF8183000218DF81E30A389A6
:10C6D000ADF81C10111802EA0B021A44101A60601F
:10C6E00006A8ADF81A1023F0C5FF06A9204624F0CD
:10C6F000D2F8211D204623F086FF636803EA0B036E
:10C70000A360204624F0EFF882460028CCD1013601
:10C710009DE76FF01B0AC7E76FF015063DE700BF06
:10C7200053A105001C6A05000000FFFF2DE9F0473A
:10C730001E4688B0037CBDF8409004460F469046E4
:10C7400073B92F4B2F48079306AA02234FF4825147
:10C75000069323F0D7FF6FF00C0008B0BDE8F08718
:10C76000C06A082123F0D1FFA389A3EB4003B342A1
:10C7700043D3D4F804A0CDF804A000254D4551467C
:10C78000DDF804A009D9636853451ED1BDF808300F
:10C79000BB421AD06FF00100DFE702AA01A92046D0
:10C7A00023F0F5FF0028D8D1BDF80830BB4206D1F0
:10C7B00002A9204623F0B3FF08B10135ADB262688B
:10C7C000019B9A42DAD15146E0E7BDF80C30002BCC
:10C7D000E0D0A945DED8BDF80A00090CB3424FEA03
:10C7E000014128BF334601444246204623F0FDFE66
:10C7F0000028B2D1BDF80C00AFE76FF01500ACE730
:10C8000053A105001C6A05002DE9F047DFF85880A8
:10C81000044607464FF0010914B93846BDE8F087D1
:10C8200094FAA4F5B5FA85F509FA05F32E0108EB9B
:10C8300005156FEA030A24EA03042B7B002BEBD0D7
:10C8400058F806301B694BB94644042273682846E1
:10C85000196807EA0A0700F035FADDE72846984725
:10C860000028D9D1F0E700BFC46A050030B51049EF
:10C87000104889B0002229F0FAF90F4D0F49002223
:10C880000023CDE9062300240E23CDE90334CDE9AE
:10C8900001440B4B00944FF44072284621F03CFABF
:10C8A0000849284628F070FE204609B030BD00BF78
:10C8B000C9C802002819002058140020185600206A
:10C8C00085CB020072A20500014821F037BC00BFF1
:10C8D000781000202DE9F04780461F480F4624F0CD
:10C8E000EEF80646002830D000252846BDE8F0873F
:10C8F000237B73B12368DB680BB12046984723681C
:10C900001B69D3B9636804221968204600F0DAF97C
:10C91000013610344C45EBD3B8F1000FE5D0002DB3
:10C92000E2D02846FFF770FF0546002FF7D0002120
:10C930004FF4A47022F068F8F1E7204698470028E9
:10C94000E0D00AFA06F31D43E2E7044CDFF810904A
:10C9500005464FF0010ADDE71C270020C46A0500E8
:10C96000C46A050010B5044C237813B9034821F0BC
:10C97000E5FB0123237010BDA54E00207810002098
:10C9800010B50446084824F09AF85CB1BFF35B8FF9
:10C99000064B53E8001F013943E80012002AF8D182
:10C9A000BFF35B8F10BD00BF1427002018270020A5
:10C9B0000020064BBFF35B8F014653E8000F43E8AE
:10C9C0000012002AF9D1BFF35B8F704714270020B3
:10C9D00070B5FFF7EDFF084C084E0546B44200D392
:10C9E00070BD63685B792BB123685B6813B129461E
:10C9F000204698471034F1E7C46A0500C46A050070
:10CA000010B5044C0449204623F080FC034B1C6005
:10CA100010BD00BF680E0020846F05000C270020A9
:10CA2000054A00231370054A1360054A1360054B3D
:10CA3000054A1A60FFF7E4BFA64E00201427002025
:10CA40001827002030040020BB0A05000146002200
:10CA50000148002323F07BBC680E0020014823F02E
:10CA600014BD00BF680E0020024B0146186823F079
:10CA70005EBD00BF0C270020014823F094BD00BF1D
:10CA8000680E002070B5284B187800284BD0FFF7AF
:10CA9000E5FF054690B1BFF35B8F244B53E8001FC1
:10CAA000013943E80012002AF8D1BFF35B8F204C14
:10CAB000204EB4422DD32846FFF7D6FF1E4B1F4C05
:10CAC0001B68002B19DD29F08BF84FF47A72A0FB5C
:10CAD000020302FB0131C30BD4E9002043EA4143C6
